:020000040800F2
:100000000050002025270008412600084926000846
:10001000512600085926000861260008000000004B
:100020000000000000000000000000006926000839
:100030007526000800000000812600088D260008B3
:100040006D2700086D2700086D2700086D27000840
:100050006D2700086D2700086D2700086D27000830
:100060006D2700086D2700086D2700086D27000820
:100070006D2700086D2700086D2700086D27000810
:100080006D2700086D2700086D2700086D27000800
:100090006D2700086D2700086D2700086D270008F0
:1000A0006D2700086D2700086D2700086D270008E0
:1000B0006D2700086D2700086D2700086D270008D0
:1000C0006D2700086D2700086D2700086D270008C0
:1000D0006D270008992600086D2700086D27000885
:1000E0006D2700086D2700086D270008000000003C
:1000F0000000000000000000000000000000000000
:0C01000000000000000000005FF808F1A3
:1001100010B5054C237833B9044B13B10448AFF341
:1001200000800123237010BD5C000020000000004F
:100130001881000808B5034B1BB103490348AFF30E
:10014000008008BD00000000600000201881000849
:10015000034613F8012B002AFBD1181A0138704707
:1001600081F0004102E000BF83F0004330B54FEA68
:1001700041044FEA430594EA050F08BF90EA020FD5
:100180001FBF54EA000C55EA020C7FEA645C7FEA68
:10019000655C00F0E2804FEA5454D4EB5555B8BF8B
:1001A0006D420CDD2C4480EA020281EA030382EAFC
:1001B000000083EA010180EA020281EA0303362D8E
:1001C00088BF30BD11F0004F4FEA01314FF4801C61
:1001D0004CEA113102D0404261EB410113F0004F73
:1001E0004FEA03334CEA133302D0524263EB43032A
:1001F00094EA050F00F0A780A4F10104D5F1200EC8
:100200000DDB02FA0EFC22FA05F2801841F1000122
:1002100003FA0EF2801843FA05F359410EE0A5F1F6
:1002200020050EF1200E012A03FA0EFC28BF4CF027
:10023000020C43FA05F3C01851EBE37101F00045DD
:1002400007D54FF0000EDCF1000C7EEB00006EEBEA
:100250000101B1F5801F1BD3B1F5001F0CD3490874
:100260005FEA30004FEA3C0C04F101044FEA4452CB
:1002700012F5800F80F09A80BCF1004F08BF5FEA52
:10028000500C50F1000041EB045141EA050130BD32
:100290005FEA4C0C404141EB0101013C28BFB1F544
:1002A000801FE9D291F0000F04BF01460020B1FA8F
:1002B00081F308BF2033A3F10B03B3F120020CDA62
:1002C0000C3208DD02F1140CC2F10C0201FA0CF040
:1002D00021FA02F10CE002F11402D8BFC2F1200CA5
:1002E00001FA02F120FA0CFCDCBF41EA0C0190405B
:1002F000E41AA2BF01EB0451294330BD6FEA0404A4
:100300001F3C1CDA0C340EDC04F11404C4F120028E
:1003100020FA04F001FA02F340EA030021FA04F3A0
:1003200045EA030130BDC4F10C04C4F1200220FAF7
:1003300002F001FA04F340EA0300294630BD21FA35
:1003400004F0294630BD94F0000F83F4801306BFFB
:1003500081F480110134013D4EE77FEA645C18BFEF
:100360007FEA655C29D094EA050F08BF90EA020F86
:1003700005D054EA000C04BF1946104630BD91EA7E
:10038000030F1EBF0021002030BD5FEA545C05D181
:100390004000494128BF41F0004130BD14F58004C0
:1003A0003CBF01F5801130BD01F0004545F0FE4134
:1003B00041F470014FF0000030BD7FEA645C1ABF69
:1003C000194610467FEA655C1CBF0B46024650EAA0
:1003D000013406BF52EA033591EA030F41F40021CC
:1003E00030BD00BF90F0000F04BF0021704730B552
:1003F0004FF4806404F132044FF000054FF0000127
:1004000050E700BF90F0000F04BF0021704730B5E7
:100410004FF4806404F1320410F0004548BF4042BC
:100420004FF000013EE700BF42004FEAE2014FEA11
:1004300031014FEA02701FBF12F07F4393F07F4FEC
:1004400081F06051704732F07F4208BF704793F0EF
:100450007F4F04BF41F40021704730B54FF4607402
:1004600001F0004521F000411CE700BF50EA010205
:1004700008BF704730B54FF000050AE050EA0102AE
:1004800008BF704730B511F0004502D5404261EB1E
:1004900041014FF4806404F132045FEA915C3FF45F
:1004A000D8AE4FF003025FEADC0C18BF03325FEAFC
:1004B000DC0C18BF033202EBDC02C2F1200300FAAD
:1004C00003FC20FA02F001FA03FE40EA0E0021FAD2
:1004D00002F11444BDE600BF70B54FF0FF0C4CF4C0
:1004E000E06C1CEA11541DBF1CEA135594EA0C0F72
:1004F00095EA0C0F00F0DEF82C4481EA030621EAAD
:100500004C5123EA4C5350EA013518BF52EA0335E7
:1005100041F4801143F4801338D0A0FB02CE4FF099
:100520000005E1FB02E506F00042E0FB03E54FF0C9
:100530000006E1FB03569CF0000F18BF4EF0010EC1
:10054000A4F1FF04B6F5007F64F5407404D25FEABD
:100550004E0E6D4146EB060642EAC62141EA555170
:100560004FEAC52040EA5E504FEACE2EB4F1FD0CB2
:1005700088BFBCF5E06F1ED8BEF1004F08BF5FEA30
:10058000500E50F1000041EB045170BD06F00046E2
:1005900046EA010140EA020081EA0301B4EB5C048F
:1005A000C2BFD4EB0C0541EA045170BD41F4801187
:1005B0004FF0000E013C00F3AB8014F1360FDEBFAC
:1005C000002001F0004170BDC4F10004203C35DA88
:1005D0000C341BDC04F11404C4F1200500FA05F30B
:1005E00020FA04F001FA05F240EA020001F00042AC
:1005F00021F0004110EBD37021FA04F642EB060122
:100600005EEA430E08BF20EAD37070BDC4F10C044B
:10061000C4F1200500FA04F320FA05F001FA04F20F
:1006200040EA020001F0004110EBD37041F10001FB
:100630005EEA430E08BF20EAD37070BDC4F1200506
:1006400000FA05F24EEA020E20FA04F301FA05F26E
:1006500043EA020321FA04F001F0004121FA04F216
:1006600020EA020000EBD3705EEA430E08BF20EAE6
:10067000D37070BD94F0000F0FD101F00046400020
:1006800041EB010111F4801F08BF013CF7D041EAA2
:10069000060195F0000F18BF704703F000465200A6
:1006A00043EB030313F4801F08BF013DF7D043EA77
:1006B0000603704794EA0C0F0CEA135518BF95EA2D
:1006C0000C0F0CD050EA410618BF52EA4306D1D1B4
:1006D00081EA030101F000414FF0000070BD50EAD3
:1006E000410606BF1046194652EA430619D094EA5D
:1006F0000C0F02D150EA013613D195EA0C0F05D147
:1007000052EA03361CBF104619460AD181EA03019A
:1007100001F0004141F0FE4141F470014FF0000052
:1007200070BD41F0FE4141F4780170BD70B54FF0ED
:10073000FF0C4CF4E06C1CEA11541DBF1CEA13556D
:1007400094EA0C0F95EA0C0F00F0A7F8A4EB05044F
:1007500081EA030E52EA03354FEA013100F0888046
:100760004FEA03334FF0805545EA131343EA12630F
:100770004FEA022245EA111545EA10654FEA0026C4
:100780000EF000419D4208BF964244F1FD0404F57D
:10079000407402D25B084FEA3202B61A65EB0305D9
:1007A0005B084FEA32024FF480104FF4002CB6EB96
:1007B000020E75EB030E22BFB61A754640EA0C0016
:1007C0005B084FEA3202B6EB020E75EB030E22BF56
:1007D000B61A754640EA5C005B084FEA3202B6EB97
:1007E000020E75EB030E22BFB61A754640EA9C0056
:1007F0005B084FEA3202B6EB020E75EB030E22BF26
:10080000B61A754640EADC0055EA060E18D04FEAE3
:10081000051545EA16754FEA06164FEAC30343EA83
:1008200052734FEAC2025FEA1C1CC0D111F4801F50
:100830000BD141EA00014FF000004FF0004CB6E749
:1008400011F4801F04BF01430020B4F1FD0C88BFE8
:10085000BCF5E06F3FF6AFAEB5EB030C04BFB6EBF3
:10086000020C5FEA500C50F1000041EB045170BDE6
:100870000EF0004E4EEA113114EB5C04C2BFD4EB13
:100880000C0541EA045170BD41F480114FF0000E97
:10089000013C90E645EA060E8DE60CEA135594EA13
:1008A0000C0F08BF95EA0C0F3FF43BAF94EA0C0F16
:1008B0000AD150EA01347FF434AF95EA0C0F7FF48B
:1008C00025AF104619462CE795EA0C0F06D152EADF
:1008D00003353FF4FDAE1046194622E750EA4106C3
:1008E00018BF52EA43067FF4C5AE50EA41047FF4D4
:1008F0000DAF52EA43057FF4EBAE12E74FF0FF3C39
:1009000006E000BF4FF0010C02E000BF4FF0010C09
:100910004DF804CD4FEA410C7FEA6C5C4FEA430C82
:1009200018BF7FEA6C5C1BD001B050EA410C0CBFD1
:1009300052EA430C91EA030F02BF90EA020F002033
:10094000704710F1000F91EA030F58BF994208BF9A
:1009500090422CBFD8176FEAE37040F00100704757
:100960004FEA410C7FEA6C5C02D150EA013C07D1AE
:100970004FEA430C7FEA6C5CD6D152EA033CD3D0F9
:100980005DF8040B704700BF8446104662468C46F3
:100990001946634600E000BF01B5FFF7B7FF002826
:1009A00048BF10F1000F01BD4DF808EDFFF7F4FF4F
:1009B0000CBF012000205DF808FB00BF4DF808EDDA
:1009C000FFF7EAFF34BF012000205DF808FB00BFFD
:1009D0004DF808EDFFF7E0FF94BF012000205DF81F
:1009E00008FB00BF4DF808EDFFF7CEFF94BF0120D4
:1009F00000205DF808FB00BF4DF808EDFFF7C4FFCD
:100A000034BF012000205DF808FB00BF4FEA410C15
:100A10007FEA6C5C02D150EA013C0AD14FEA430CF8
:100A20007FEA6C5C02D152EA033C02D14FF0000035
:100A300070474FF0010070474FEA410212F5001273
:100A400015D211D56FF47873B3EB625212D94FEA15
:100A5000C12343F0004343EA505311F0004F23FAFF
:100A600002F018BF404270474FF00000704750EA54
:100A7000013005D111F0004008BF6FF00040704711
:100A80004FF00000704700BF4FEA4102B2F1E0436F
:100A900024BFB3F5001CDCF1FE5C0DD901F0004C65
:100AA0004FEAC0024CEA5070B2F1004F40EB8300B5
:100AB00008BF20F00100704711F0804F21D113F1E1
:100AC0003872BCBF01F00040704741F480114FEA1A
:100AD0005252C2F11802C2F1200C10FA0CF320FAA3
:100AE00002F018BF40F001004FEAC1234FEAD323C0
:100AF00003FA0CFC40EA0C0023FA02F34FEA43032A
:100B0000CCE77FEA625307D150EA01331EBF4FF0B2
:100B1000FE4040F44000704701F0004040F0FE40CD
:100B200040F40000704700BF80F0004002E000BFCA
:100B300081F0004142001FBF5FEA410392EA030FC8
:100B40007FEA226C7FEA236C6AD04FEA1262D2EB12
:100B50001363C1BFD218414048404140B8BF5B4217
:100B6000192B88BF704710F0004F40F4000020F0B0
:100B70007F4018BF404211F0004F41F4000121F0C6
:100B80007F4118BF494292EA030F3FD0A2F1010210
:100B900041FA03FC10EB0C00C3F1200301FA03F14E
:100BA00000F0004302D5494260EB4000B0F5000F71
:100BB00013D3B0F1807F06D340084FEA310102F130
:100BC0000102FE2A51D2B1F1004F40EBC25008BFE2
:100BD00020F0010040EA03007047490040EB0000AC
:100BE000013A28BFB0F5000FEDD2B0FA80FCACF1AD
:100BF000080CB2EB0C0200FA0CF0AABF00EBC250DA
:100C000052421843BCBFD0401843704792F0000FC7
:100C100081F4000106BF80F400000132013BB5E71A
:100C20004FEA41037FEA226C18BF7FEA236C21D090
:100C300092EA030F04D092F0000F08BF08467047F5
:100C400090EA010F1CBF0020704712F07F4F04D1C3
:100C5000400028BF40F00040704712F100723CBFD6
:100C600000F50000704700F0004343F0FE4040F400
:100C7000000070477FEA226216BF08467FEA2363BE
:100C80000146420206BF5FEA412390EA010F40F4A9
:100C9000800070474FF0000304E000BF10F00043F5
:100CA00048BF40425FEA000C08BF704743F09643DC
:100CB00001464FF000001CE050EA010208BF7047F7
:100CC0004FF000030AE000BF50EA010208BF70477E
:100CD00011F0004302D5404261EB41015FEA010C93
:100CE00002BF84460146002043F0B64308BFA3F18B
:100CF0008053A3F50003BCFA8CF2083AA3EBC2536D
:100D000010DB01FA02FC634400FA02FCC2F120028B
:100D1000BCF1004F20FA02F243EB020008BF20F0C2
:100D20000100704702F1200201FA02FCC2F1200228
:100D300050EA4C0021FA02F243EB020008BF20EA1D
:100D4000DC7070474FF0FF0C1CEAD0521EBF1CEA4B
:100D5000D15392EA0C0F93EA0C0F6FD01A4480EA39
:100D6000010C400218BF5FEA41211ED04FF0006322
:100D700043EA501043EA5111A0FB01310CF000404E
:100D8000B1F5000F3EBF490041EAD3715B0040EA74
:100D9000010062F17F02FD2A1DD8B3F1004F40EB44
:100DA000C25008BF20F00100704790F0000F0CF017
:100DB000004C08BF49024CEA502040EA51207F3ADB
:100DC000C2BFD2F1FF0340EAC250704740F40000B6
:100DD0004FF00003013A5DDC12F1190FDCBF00F0A7
:100DE00000407047C2F10002410021FA02F1C2F155
:100DF000200200FA02FC5FEA310040F1000053EAF1
:100E00004C0308BF20EADC70704792F0000F00F03E
:100E1000004C02BF400010F4000F013AF9D040EA44
:100E20000C0093F0000F01F0004C02BF490011F4D8
:100E3000000F013BF9D041EA0C018FE70CEAD153D6
:100E400092EA0C0F18BF93EA0C0F0AD030F0004C56
:100E500018BF31F0004CD8D180EA010000F000400A
:100E6000704790F0000F17BF90F0004F084691F0C8
:100E7000000F91F0004F14D092EA0C0F01D1420202
:100E80000FD193EA0C0F03D14B0218BF084608D1CB
:100E900080EA010000F0004040F0FE4040F4000015
:100EA000704740F0FE4040F4400070474FF0FF0CA8
:100EB0001CEAD0521EBF1CEAD15392EA0C0F93EAEF
:100EC0000C0F69D0A2EB030280EA010C49024FEA41
:100ED000402037D04FF0805343EA111143EA1013FA
:100EE0000CF000408B4238BF5B0042F17D024FF4B2
:100EF000000C8B4224BF5B1A40EA0C00B3EB510F8D
:100F000024BFA3EB510340EA5C00B3EB910F24BF75
:100F1000A3EB910340EA9C00B3EBD10F24BFA3EBFA
:100F2000D10340EADC001B0118BF5FEA1C1CE0D1C2
:100F3000FD2A3FF650AF8B4240EBC25008BF20F075
:100F4000010070470CF0004C4CEA50207F32C2BFC9
:100F5000D2F1FF0340EAC250704740F400004FF066
:100F60000003013A37E792F0000F00F0004C02BF97
:100F7000400010F4000F013AF9D040EA0C0093F061
:100F8000000F01F0004C02BF490011F4000F013BBB
:100F9000F9D041EA0C0195E70CEAD15392EA0C0F23
:100FA00008D142027FF47DAF93EA0C0F7FF470AF5B
:100FB000084676E793EA0C0F04D14B023FF44CAF9E
:100FC00008466EE730F0004C18BF31F0004CCAD133
:100FD00030F000427FF45CAF31F000437FF43CAF6F
:100FE0005FE700BF4FF0FF3C06E000BF4FF0010C91
:100FF00002E000BF4FF0010C4DF804CD4FEA400273
:101000004FEA41037FEA226C18BF7FEA236C11D0BC
:1010100001B052EA530C18BF90EA010F58BFB2EB6F
:10102000030088BFC81738BF6FEAE17018BF40F0EF
:10103000010070477FEA226C02D15FEA402C05D1A3
:101040007FEA236CE4D15FEA412CE1D05DF8040B28
:10105000704700BF844608466146FFE70FB5FFF7BB
:10106000C9FF002848BF10F1000F0FBD4DF808ED73
:10107000FFF7F4FF0CBF012000205DF808FB00BF64
:101080004DF808EDFFF7EAFF34BF012000205DF8BE
:1010900008FB00BF4DF808EDFFF7E0FF94BF01200B
:1010A00000205DF808FB00BF4DF808EDFFF7D2FF08
:1010B00094BF012000205DF808FB00BF4DF808ED4B
:1010C000FFF7C8FF34BF012000205DF808FB00BF18
:1010D0004FEA40024FEA41037FEA226C02D15FEA05
:1010E000402C08D17FEA236C02D15FEA412C02D167
:1010F0004FF0000070474FF0010070474FEA400288
:10110000B2F1FE4F0FD34FF09E03B3EB12620DD935
:101110004FEA002343F0004310F0004F23FA02F09F
:1011200018BF404270474FF00000704712F1610F46
:1011300001D1420205D110F0004008BF6FF000401D
:1011400070474FF00000704780B586B004AF4FF095
:10115000FF33029301230193FB1D009301237522AA
:10116000D0210C4802F068FDFB79682B0ED10023DA
:10117000BB714FF0FF33029301230193BB1D00931A
:1011800001236B22D021034802F05CFC00BF08372A
:10119000BD4680BD9400002090B593B004AFF860C8
:1011A000B9607A603B604FF0FF3302930E230193E6
:1011B00007F11403009301233B22D021924802F04F
:1011C0003BFD3B7D1BB21B021AB27B7D1BB213435E
:1011D000FB86BB7D1BB21B021AB2FB7D1BB2134305
:1011E000BB863B7E1BB21B021AB27B7E1BB2134333
:1011F0007B863B7F1BB21B021AB27B7F1BB2134361
:101200001AB2FB6C1A80BB7F1BB21B021AB2FB7FA7
:101210001BB213431AB23B6D1A8097F820301BB2F1
:101220001B021AB297F821301BB213431AB27B6D1E
:101230001A80B7F936301846FFF7E4F86EA3D3E901
:101240000023FFF749F902460B46104619464FF0B6
:1012500000026E4BFFF76AFA02460B46104619462B
:10126000FFF7EAFB0246FB681A60B7F9343018460C
:10127000FFF7C8F860A3D3E90023FFF72DF9024672
:101280000B46104619464FF00002604BFFF74EFA2E
:1012900002460B4610461946FFF7CEFB0246BB68D6
:1012A0001A60B7F932301846FFF7ACF852A3D3E909
:1012B0000023FFF711F902460B46104619464FF07E
:1012C0000002524BFFF732FA02460B46104619460F
:1012D000FFF7B2FB02467B681A60B7F93630184652
:1012E000FFF790F84FF00002484BFFF71FFA024655
:1012F0000B4610461946FFF7C7FB0346FB62B7F9DA
:1013000034301846FFF77EF84FF000023F4BFFF7EE
:101310000DFA02460B4610461946FFF7B5FB034689
:10132000BB62B7F932301846FFF76CF84FF0000295
:10133000364BFFF7FBF902460B4610461946FFF7FE
:10134000A3FB03467B62F96AF86AFFF7FBFC0346DE
:101350001C46796A786AFFF7F5FC03461946204671
:10136000FFF7E8FB0346184605F012FE0346194650
:10137000B86A05F00BFE03461846FFF755F84FF024
:101380000002234BFFF7A8F802460B461046194609
:101390001BA3D3E90023FFF7C9F902460B46104609
:1013A0001946FFF749FB02463B681A60FB6A83F067
:1013B0000043796A184605F0E9FD03461846FFF731
:1013C00033F84FF00002124BFFF786F802460B4647
:1013D000104619460AA3D3E90023FFF7A7F90246EE
:1013E0000B4610461946FFF727FB0246BB6C1A60F6
:1013F00000BF3C37BD4690BD1F85EB51B89E2340D2
:10140000182D4454FB210940940000200000D040D6
:101410000080664080B586B000AF0023FB753B1DA1
:1014200000221A605A609A60DA604FF400737B60A1
:101430000123BB6002233B610023FB603B1D194677
:101440002D4802F007F800224FF400712A4802F0FC
:101450009CF940F2145000F0E7F901224FF40071BA
:10146000254802F092F91E2000F0DEF90023BB604F
:101470000123FB603B1D19461F4801F0EBFF2820AC
:1014800000F0D2F94FF400711B4802F067F90346EF
:10149000002B0CD1502000F0C7F94FF40071164812
:1014A00002F05CF90346002B01D00123FB7501F02B
:1014B000B7F90346114A136001F0B2F90346104A26
:1014C000136004E001F0ACF903460D4A13604FF4D9
:1014D0000071094802F042F90346002B06D0074B81
:1014E0001B689A1C064B1B689A42EBD8FB7D18467A
:1014F0001837BD4680BD00BF000C014080010020B0
:101500008401002080B582B000AF0023FB7166E04B
:1015100001F086F90346364A136001F081F903466B
:10152000344A136004E001F07BF90346314A13604A
:101530004FF40071304802F011F90346002B06D138
:101540002B4B1B689A1C2B4B1B689A42EBD828200C
:1015500000F06AF94FF40071274802F0FFF80346E3
:10156000002B0ED1FB79C3F10703012202FA03F32A
:101570005BB2DB435AB297F9063013405BB2BB71E2
:101580000BE0FB79C3F10703012202FA03F35AB21D
:1015900097F9063013435BB2BB7101F041F9034682
:1015A000134A136001F03CF90346124A136004E049
:1015B00001F036F903460F4A13604FF400710E48EC
:1015C00002F0CCF80346002B06D0094B1B689A1C8E
:1015D000084B1B689A42EBD8FB790133FB71FB790E
:1015E000072B95D9BB7918460837BD4680BD00BF8B
:1015F0008001002084010020000C014080B588B0EB
:1016000004AF0346FB71FB799AB24FF0FF330293AC
:101610000223019307F10C0300930123EE210748F5
:1016200002F00AFB3B7B1BB21B021AB27B7B1BB294
:1016300013431BB218461037BD4680BD94000020EE
:1016400080B588B004AF0346FB71FB799AB24FF0C6
:10165000FF3302930223019307F10C03009301234C
:10166000EE21084802F0E8FA3B7B1BB21B021AB2DB
:101670007B7B1BB213431BB29BB218461037BD468F
:1016800080BD00BF9400002080B500AFAA20FFF706
:10169000B5FF03461A46254B1A80AC20FFF7AEFF74
:1016A00003461A46224B1A80AE20FFF7A7FF0346D7
:1016B0001A46204B1A80B020FFF7C2FF03461A4695
:1016C0001D4B1A80B220FFF7BBFF03461A461B4B87
:1016D0001A80B420FFF7B4FF03461A46184B1A804D
:1016E000B620FFF78BFF03461A46164B1A80B82028
:1016F000FFF784FF03461A46134B1A80BA20FFF700
:101700007DFF03461A46114B1A80BC20FFF776FF77
:1017100003461A460E4B1A80BE20FFF76FFF0346A2
:101720001A460C4B1A8000BF80BD00BF98010020F4
:101730009A0100209C010020A8010020AA0100209D
:10174000AC0100209E010020A0010020A201002089
:10175000A4010020A601002080B586B004AF2E238E
:10176000FB714FF0FF33029301230193FB1D0093A4
:101770000123F422EE21054802F064F9052001F06E
:1017800059F800BF0837BD4680BD00BF9400002057
:1017900080B500AFF620FFF753FF03461A46024B11
:1017A0001A6000BF80BD00BFB001002080B586B0C8
:1017B00004AF3423FB714FF0FF33029301230193F5
:1017C000FB1D00930123F422EE21054802F03AF9B3
:1017D000082001F02FF800BF0837BD4680BD00BFCC
:1017E0009400002080B586B004AF4FF0FF33029321
:1017F000032301933B1D00930123F622EE210848A9
:1018000002F01AFA3B791A047B791B021343BA7966
:1018100013431B12034A136000BF0837BD4680BD47
:1018200094000020B401002080B483B000AF0346D0
:10183000FB80084B1B6800225A6200BF054B1B68E7
:101840005A6AFB889A42F9D300BF00BF0C37BD46E5
:1018500080BC7047E800002080B58CB004AF00F079
:1018600087FF00F0A5FB00F023FD00F0FDFB00F07A
:1018700039FC00F075FC00F0A1FC00F0EFFC904892
:1018800003F0CEFDFFF760FC8E4801F0CFF88E48E4
:1018900001F0CCF8FFF7F8FEFFF7BCFD0346002B84
:1018A00000F08E80FFF72EFE03461A46874B1A7013
:1018B000FFF728FE03461A46854B1A70FFF722FEF3
:1018C00003461A46834B1A70FFF71CFE03461A465E
:1018D000814B1A70FFF716FE03461A467F4B1A70AB
:1018E0007A4B1A787A4B1B781344DAB2794B1B780F
:1018F0001344DAB2784B1B781344DAB2784B1A707F
:10190000774B1A78754B1B789A4255D16F4B1B78E1
:101910001B026F4A12781343724A82FB0312921021
:10192000DB17D31A704A13606F4B1B686F4A1C2178
:101930006F4804F0FFFD674B1B785BB2002B11DA98
:10194000654B1B786B4AA2FB0323DB08DBB25B42CF
:10195000694A1360684B1B68684A1C21684804F098
:10196000E9FD14E05B4B1B781B025B4A12781343C2
:101970005C4A82FB03129210DB17D31A5E4A136093
:101980005D4B1B685D4A1C215D4804F0D3FD5A4B3A
:101990001A681346DB001344524A82FB03125210AA
:1019A000DB17D31A2033574A1360564B1B68534A30
:1019B0001C21554804F0BEFD4FF47A7000F03AFF48
:1019C000524B0393524B0293524B0193524B009351
:1019D000524B534A53495448FFF7DEFB524B1B68A6
:1019E000002B0CDA504B1B685B424F4A13604E4B86
:1019F0001B684E4A1E214E4804F09CFD06E04A4BEF
:101A00001B684C4A1E214A4804F094FD454B1B6854
:101A1000002B0CDA434B1B685B42424A1360414B7C
:101A20001B68454A1E21454804F084FD06E03D4BF5
:101A30001B68434A1E21414804F07CFD384B1B685B
:101A4000002B0CDA364B1B685B42354A1360344B73
:101A50001B68394A1E213B4804F06CFD06E0304B00
:101A60001B68374A1E21374804F064FD2B4B1B6866
:101A7000002B0CDA294B1B685B42284A1360274B6A
:101A80001B68314A1E21314804F054FD06E0234B07
:101A90001B681A4A1E212D4804F04CFD1E4B1B6882
:101AA000002B57DA1C4B1B685B421B4A13601A4B16
:101AB0001B68254A1E21264804F03CFD51E000BF6A
:101AC000E8000020C8010020F80100207801002073
:101AD000790100207A0100207B0100207C01002098
:101AE0007D01002067666666900100203081000855
:101AF00060020020CDCCCCCC8801002034810008CD
:101B0000280200208C010020440200207C000020DC
:101B10007A0000207800002084000020800000204F
:101B2000900000208C0000208800002038810008F0
:101B30007C02002040810008448100089C020020B3
:101B40004C810008BC02002050810008DC0200200B
:101B5000FC0200206A4B1B686A4A1E216A4804F096
:101B6000E9FC4FF47A71694801F00EF8674801F01A
:101B700011F903469AB2664B1A80654B1B88654A79
:101B80001E21654804F0D6FC4FF47A7000F052FE36
:101B90004FF47A71614800F0F7FF604801F0FAF8FD
:101BA00003469AB25E4B1A805D4B1B885D4A1E212C
:101BB0005D4804F0BFFC4FF47A7000F03BFEFFF785
:101BC000CBFDFFF7E5FDFFF7F1FDFFF70BFE574BF0
:101BD0001B68574A12889B1A564A128802FB03F365
:101BE000DB13FB61544BB3F90030DA02534BB3F90A
:101BF00000301946FB690B4492FBF3F3BB61FA69B1
:101C0000BB6913444E4A13604D4B1B6808331B11CC
:101C10001846FFF743F803464A491846FFF746F9C6
:101C200003461846FFF76AFA0346474A1360464BD5
:101C30001B68464A1E21464804F07CFC404B1B684A
:101C4000A3F57A637B61434BB3F900301A467B6995
:101C500003FB03F31B1302FB03F3DB12FB613E4B9D
:101C6000B3F900301A467B6902FB03F3DB12BB6158
:101C7000FA69BB6913443B61384BB3F900309A00F1
:101C80003B69134402339B10FB60354BB3F90030C2
:101C90001A467B6902FB03F35B13FB61314BB3F91B
:101CA00000301A467B6903FB03F31B1302FB03F3AB
:101CB0001B14BB61FA69BB69134402339B103B617F
:101CC000294B1B881A463B6903F5004302FB03F3CB
:101CD000DB0BBB60254B1B681A46FB68D31A4CF222
:101CE000503202FB03F37B607B68002B42DB7B6896
:101CF0005A00BB68B2FBF3F31A461D4B1A6041E071
:101D00008400002034810008FC020020C80100206B
:101D100094010020588100081C030020F8010020D5
:101D200096010020608100083C030020B0010020E3
:101D3000AC010020AA010020A4010020A60100207F
:101D4000B801002000002041BC010020648100088F
:101D50005C030020A00100209A01002098010020CF
:101D60009C0100209E010020A8010020B401002059
:101D7000C00100207A68BB68B2FBF3F35B001A462F
:101D8000774B1A60764B1B681B12754A1268121249
:101D900002FB03F3FB61FB6940F6DE3202FB03F357
:101DA0001B14FB616E4B1B686E4A02FB03F31B1492
:101DB000BB61FA69BB69134403F6CF631A11684B20
:101DC0001B681344664A1360654B1B68664A1E21F4
:101DD000664804F0AFFB624B1B681846FEF75EFFD7
:101DE000034663491846FFF761F803461846FEF7B5
:101DF0001BFB57A3D3E9002305F060F802460B460E
:101E00004FF000005B49FEF7AFF902460B46104663
:101E1000194651A3D3E90023FEF75EFB02460B46A9
:101E200010461946FEF708FE0346534A1360524B0C
:101E30001B68524A1E21524804F07CFB5148FEF7B1
:101E400087F903469AB24FF0FF334E494E4803F0EC
:101E5000ABFD4E48FEF77CF903469AB24FF0FF33D4
:101E60004A49494803F0A0FD4948FEF771F9034685
:101E70009AB24FF0FF334649434803F095FD454879
:101E8000FEF766F903469AB24FF0FF3341493E48E8
:101E900003F08AFD4048FEF75BF903469AB24FF023
:101EA000FF333D49384803F07FFD3C48FEF750F9C9
:101EB00003469AB24FF0FF333849334803F074FDBC
:101EC0003748FEF745F903469AB24FF0FF333449DD
:101ED0002D4803F069FD3348FEF73AF903469AB2FC
:101EE0004FF0FF332F49284803F05EFD2E48FEF7E0
:101EF0002FF903469AB24FF0FF332B49224803F0E3
:101F000053FD2A48FEF724F903469AB24FF0FF33F7
:101F100026491D4803F048FD1448FEF719F9034609
:101F20009AB24FF0FF331149174803F03DFD1448B2
:101F3000FEF70EF903469AB24FF0FF3310491248EC
:101F400003F032FD4FF4FA7000F074FCA4E400BF1B
:101F500000000020C05BC83F0000000040A5E54035
:101F6000C001002043E3FFFF688100087C030020DC
:101F700080E6C5470000F03FC4010020348100081E
:101F80009C03002060020020300100202802002075
:101F9000440200207C0200209C020020BC020020A1
:101FA000DC020020FC0200201C0300203C03002077
:101FB00080B594B000AF07F128032822002118460D
:101FC00004F0EEFA07F1140300221A605A609A60D6
:101FD000DA601A613B1D00221A605A609A60DA606A
:101FE0000123BB624FF48033FB6200233B63012378
:101FF000BB6302237B644FF48033BB644FF4E01374
:10200000FB6407F12803184602F03EFC0346002B50
:1020100001D000F099F90F237B610223BB610023FB
:10202000FB614FF480633B6200237B6207F1140382
:102030000221184602F0AAFE0346002B01D000F050
:1020400083F902237B604FF40043FB603B1D18467D
:1020500003F02AF80346002B01D000F075F900BF09
:102060005037BD4680BD000080B584B000AF3B1D39
:1020700000221A605A609A60184B194A1A60174B6E
:1020800000229A60154B01221A73144B00221A7514
:10209000124B4FF46022DA61104B00225A600F4B52
:1020A00001221A610D4800F0E9FB0346002B01D024
:1020B00000F04AF901237B600123BB600023FB6031
:1020C0003B1D1946054800F071FE0346002B01D068
:1020D00000F03AF900BF1037BD4680BDC8010020AE
:1020E0000024014080B584B000AF3B1D00221A607F
:1020F0005A609A60184B194A1A60174B00229A606E
:10210000154B01221A73144B00221A75124B4FF40F
:102110006022DA61104B00225A600F4B01221A61D3
:102120000D4800F0ABFB0346002B01D000F00CF98A
:1021300002237B600123BB600023FB603B1D19462B
:10214000054800F033FE0346002B01D000F0FCF8F8
:1021500000BF1037BD4680BDF801002000280140B7
:1021600080B500AF124B134A1A60114B124A5A60E5
:102170000F4B00229A600E4B0022DA600C4B4FF49A
:1021800080421A610A4B00225A61094B00229A616F
:10219000074B0022DA61064B00221A62044801F064
:1021A0000DFB0346002B01D000F0CEF800BF80BD30
:1021B0009400002000540040A086010080B586B045
:1021C00000AF07F1080300221A605A609A60DA60D3
:1021D0003B4600221A605A601E4B1F4A1A601D4B74
:1021E00047225A601B4B00229A601A4B4FF6FF722F
:1021F000DA60184B00221A61164B00225A61154B07
:1022000000229A61134803F0BBF80346002B01D06B
:1022100000F09AF84FF48053BB6007F108031946A9
:102220000C4803F047F90346002B01D000F08CF86E
:1022300000233B6000237B603B461946054803F0C2
:1022400005FB0346002B01D000F07EF800BF1837D5
:10225000BD4680BDE8000020002C014080B500AFE5
:10226000114B124A1A60104B4FF416525A600E4B23
:1022700000229A600C4B0022DA600B4B00221A619C
:10228000094B0C225A61084B00229A61064B00222E
:10229000DA61054803F038FB0346002B01D000F05B
:1022A00053F800BF80BD00BF30010020003801405E
:1022B00080B588B000AF07F1100300221A605A60A1
:1022C0009A60DA601E4B9B691D4A43F020039361BC
:1022D0001B4B9B6903F02003FB60FB68184B9B6959
:1022E000174A43F004039361154B9B6903F0040301
:1022F000BB60BB68124B9B69114A43F008039361B2
:102300000F4B9B6903F008037B607B6800224FF44E
:1023100000710C4801F039FA4FF400733B6101235E
:102320007B610023BB610223FB6107F110031946A7
:10233000044801F08FF800BF2037BD4680BD00BFC4
:1023400000100240000C014080B400AF72B600BF24
:1023500000BFFDE780B485B000AF154B9B69144A00
:1023600043F001039361124B9B6903F00103BB60CF
:10237000BB680F4BDB690E4A43F08053D3610C4BB3
:10238000DB6903F080537B607B680A4B5B68FB6012
:10239000FB6823F0E063FB60FB6843F00073FB60C5
:1023A000044AFB68536000BF1437BD4680BC7047C9
:1023B000001002400000014080B58AB000AF786094
:1023C00007F1180300221A605A609A60DA607B688D
:1023D0001B68284A934222D1274B9B69264A43F423
:1023E00000739361244B9B6903F400737B617B69E9
:1023F000214B9B69204A43F0040393611E4B9B6968
:1024000003F004033B613B690223BB610323FB61CF
:1024100007F118031946194801F01CF826E07B68FB
:102420001B68174A934221D1134B9B69124A43F40C
:1024300080639361104B9B6903F48063FB60FB68CE
:102440000D4B9B690C4A43F0040393610A4B9B6953
:1024500003F00403BB60BB680423BB610323FB617F
:1024600007F118031946054800F0F4FF00BF2837AC
:10247000BD4680BD0024014000100240000801401C
:102480000028014080B58AB000AF786007F11803DA
:1024900000221A605A609A60DA607B681B682B4AD7
:1024A000934224D12A4B9B69294A43F00803936144
:1024B000274B9B6903F008037B617B69C023BB61E9
:1024C0001223FB6103237B6207F11803194621489D
:1024D00000F0C0FF1E4BDB691D4A43F40013D361BB
:1024E0001B4BDB6903F400133B613B6929E07B680C
:1024F0001B68194A934224D1154B9B69144A43F037
:1025000008039361124B9B6903F00803FB60FB68AF
:102510004FF44063BB611223FB6103237B6207F12D
:10252000180319460B4800F095FF094BDB69084A70
:1025300043F48003D361064BDB6903F48003BB6083
:10254000BB6800BF2837BD4680BD00BF00540040B7
:1025500000100240000C01400058004080B485B0DB
:1025600000AF78607B681B68094A93420BD1094B26
:102570009B69084A43F400639361064B9B6903F42B
:102580000063FB60FB6800BF1437BD4680BC70472A
:10259000002C01400010024080B588B000AF786088
:1025A00007F1100300221A605A609A60DA607B68B3
:1025B0001B68204A934239D11F4B9B691E4A43F442
:1025C000804393611C4B9B6903F48043FB60FB6871
:1025D000194B9B69184A43F004039361164B9B699E
:1025E00003F00403BB60BB684FF400733B6102233C
:1025F0007B610323FB6107F1100319460F4800F0CC
:1026000029FF4FF480633B6100237B610023BB61A2
:1026100007F110031946094800F01CFF00220021B1
:10262000252000F02EFE252000F047FE00BF2037B9
:10263000BD4680BD00380140001002400008014046
:1026400080B400AF00BFFDE780B400AF00BFFDE77E
:1026500080B400AF00BFFDE780B400AF00BFFDE76E
:1026600080B400AF00BFFDE780B400AF00BFBD463F
:1026700080BC704780B400AF00BFBD4680BC7047CF
:1026800080B400AF00BFBD4680BC704780B500AFCE
:1026900000F0B4F800BF80BD80B500AF024803F081
:1026A0000FFA00BF80BD00BF3001002080B586B0AA
:1026B00000AF7860144A154BD31A7B617B693B618C
:1026C000134B1B68002B02D1114B124A1A60104B9E
:1026D0001A687B6813443A699A4207D203F068FF8C
:1026E00003460C221A604FF0FF3309E0084B1B68C9
:1026F000FB60074B1A687B681344054A1360FB684C
:1027000018461837BD4680BD005000200004000068
:10271000BC0300201005002080B400AF00BFBD4600
:1027200080BC7047FFF7F8FF0B480C490C4A0023A8
:1027300002E0D458C4500433C4188C42F9D3094A77
:10274000094C002301E013600432A242FBD303F0E2
:1027500035FFFFF781F87047000000205C00002083
:10276000708200085C0000200C050020FEE70000DD
:1027700080B500AF084B1B68074A43F01003136095
:10278000032000F073FD0F2000F008F8FFF7E2FDD2
:102790000023184680BD00BF0020024080B582B0F3
:1027A00000AF7860124B1A68124B1B7819464FF431
:1027B0007A73B3FBF1F3B2FBF3F3184600F08BFD31
:1027C0000346002B01D001230EE07B680F2B0AD8B3
:1027D000002279684FF0FF3000F053FD064A7B6815
:1027E0001360002300E0012318460837BD4680BD72
:1027F00000000020080000200400002080B400AF8A
:10280000054B1B781A46054B1B681344034A13609B
:1028100000BFBD4680BC704708000020C0030020F8
:1028200080B400AF024B1B681846BD4680BC7047A1
:10283000C003002080B584B000AF7860FFF7F0FFE0
:10284000B8607B68FB60FB68B3F1FF3F05D00A4BC3
:102850001B781A46FB681344FB6000BFFFF7E0FFDC
:102860000246BB68D31AFA689A42F7D800BF00BF85
:102870001037BD4680BD00BF0800002080B586B07F
:1028800000AF78600023FB7500233B610023BB6031
:102890000023FB607B68002B01D10123BEE07B6835
:1028A0009B68002B7B689B6A002B09D17B68002208
:1028B000DA627B68002283F824207868FFF77CFDC9
:1028C000786800F0C5FB0346FB757B689B6A03F0E4
:1028D0001003002B40F09980FB7D002B40F0958089
:1028E0007B689B6A23F4885323F0020343F00202BF
:1028F0007B689A627B685A687B68DB691A437B68ED
:102900001B7B5B001343BA681343BB607B689B6807
:10291000B3F5807F03D07B689B68012B02D14FF415
:10292000807300E000233A6913433B617B681B7DA1
:10293000012B19D17B681B7B002B09D17B689B691C
:10294000013B5A033B69134343F400633B610BE0D3
:102950007B689B6A43F020027B689A627B68DB6A33
:1029600043F001027B68DA627B681B685B6823F4D2
:1029700069417B681B683A690A435A607B681B6837
:102980009A68284B13407A681268B9680B439360C1
:102990007B689B68B3F5807F03D07B689B68012BC5
:1029A00004D17B681B69013B1B05FB607B681B68CE
:1029B000DB6A23F470017B681B68FA680A43DA62F9
:1029C0007B681B689A68184B1340BA689A420BD10F
:1029D0007B680022DA627B689B6A23F0030343F082
:1029E00001027B689A6218E07B689B6A23F01203FD
:1029F00043F010027B689A627B68DB6A43F0010255
:102A00007B68DA620123FB7507E07B689B6A43F011
:102A100010027B689A620123FB75FB7D184618370C
:102A2000BD4680BDFDF7E1FFFE0E1FFF80B584B0FF
:102A300000AF78600023FB737B6893F82430012B90
:102A400001D1022398E07B68012283F82420786872
:102A500000F0A4FA0346FB73FB7B002B40F0878059
:102A60007B689B6A23F4407323F0010343F4807274
:102A70007B689A627B681B68414A934205D1414B4F
:102A80005B6803F47023002B15D17B689B6A23F4E9
:102A900080127B689A627B681B685B6803F48063C2
:102AA000002B26D07B689B6A23F4405343F480526A
:102AB0007B689A621DE07B689B6A43F480127B68A6
:102AC0009A627B681B682F4A934204D07B681B681C
:102AD0002B4A93420DD12B4B5B6803F48063002B90
:102AE00007D07B689B6A23F4405343F480527B6891
:102AF0009A627B689B6A03F48053002B06D07B6844
:102B0000DB6A23F006027B68DA6202E07B6800225F
:102B1000DA627B68002283F824207B681B686FF0F0
:102B200002021A607B681B689B6803F46023B3F59C
:102B3000602F13D17B681B68114A934205D1114B5A
:102B40005B6803F47023002B08D17B681B689A68CC
:102B50007B681B6842F4A0029A600CE07B681B68EB
:102B60009A687B681B6842F480129A6003E07B6875
:102B7000002283F82420FB7B18461037BD4680BD19
:102B8000002801400024014090B587B000AF786074
:102B9000396000237B610023FB6000233B61FFF76A
:102BA0003FFE78617B681B689B6803F48073002B91
:102BB0000BD07B689B6A43F020027B689A627B683B
:102BC000002283F824200123D3E07B681B685B6824
:102BD00003F48073002B31D17B681B68DB6A03F43C
:102BE0007003002B2AD121E03B68B3F1FF3F1DD0D9
:102BF0003B68002B07D0FFF713FE02467B69D31A10
:102C00003A689A4212D27B681B681B6803F0020381
:102C1000002B0BD17B689B6A43F004027B689A62AD
:102C20007B68002283F824200323A2E07B681B68D2
:102C30001B6803F00203002BD6D070E04F4B1C68DA
:102C4000022002F0E7FA0346B4FBF3F27B681B684C
:102C500019694B4B0B40002B18D17B681B68D96856
:102C6000484B0B40002B11D17B681B681969464B00
:102C70000B40002B08D17B681B68D968434B0B4085
:102C8000002B01D1142320E029231EE07B681B6860
:102C900019693D4B0B40002B06D17B681B68D96836
:102CA0003A4B0B40002B0DD07B681B681969384BE1
:102CB0000B40002B08D17B681B68D968344B0B4054
:102CC000002B01D1542300E0FC2302FB03F33B6102
:102CD00021E03B68B3F1FF3F1AD03B68002B07D0DF
:102CE000FFF79EFD02467B69D31A3A689A420FD2DB
:102CF000FB683A699A420BD97B689B6A43F00402ED
:102D00007B689A627B68002283F82420032330E0EA
:102D1000FB680133FB60FB683A699A42D9D87B684B
:102D20001B686FF012021A607B689B6A43F40072A2
:102D30007B689A627B681B689B6803F46023B3F529
:102D4000602F15D17B681B7B002B11D17B689B6AA0
:102D500023F480727B689A627B689B6A03F48053D9
:102D6000002B05D17B689B6A43F001027B689A6265
:102D7000002318461C37BD4690BD00BF0000002050
:102D80002449922424499200922449129224490011
:102D90004992240080B483B000AF78607B681B68E0
:102DA000DB6C18460C37BD4680BC704780B485B0DC
:102DB00000AF786039600023FB730023BB607B6841
:102DC00093F82430012B01D10223DCE07B6801223F
:102DD00083F824203B685B68062B1CD87B681B6843
:102DE000596B3B685A6813469B001344053B1F22EE
:102DF00002FA03F3DB4319403B6818683B685A68E2
:102E000013469B001344053B00FA03F27B681B68E2
:102E10000A435A633CE03B685B680C2B1CD87B6818
:102E20001B68196B3B685A6813469B001344233B8D
:102E30001F2202FA03F3DB4319403B6818683B6822
:102E40005A6813469B001344233B00FA03F27B6845
:102E50001B680A431A631BE07B681B68D96A3B68DE
:102E60005A6813469B001344413B1F2202FA03F3A6
:102E7000DB4319403B6818683B685A6813469B005F
:102E80001344413B00FA03F27B681B680A43DA6291
:102E90003B681B68092B1CD97B681B68D9683B6899
:102EA0001A6813465B0013441E3B072202FA03F321
:102EB000DB4319403B6898683B681A6813465B001F
:102EC00013441E3B00FA03F27B681B680A43DA6076
:102ED00019E07B681B6819693B681A6813465B0038
:102EE0001344072202FA03F3DB4319403B68986856
:102EF0003B681A6813465B00134400FA03F27B68D0
:102F00001B680A431A613B681B68102B03D03B689F
:102F10001B68112B32D17B681B681D4A934225D157
:102F20007B681B689B6803F40003002B26D17B6839
:102F30001B689A687B681B6842F400029A603B68D1
:102F40001B68102B1AD1134B1B68134AA2FB0323D7
:102F50009A0C13469B0013445B00BB6002E0BB6805
:102F6000013BBB60BB68002BF9D107E07B689B6A23
:102F700043F020027B689A620123FB737B68002286
:102F800083F82420FB7B18461437BD4680BC70476D
:102F9000002401400000002083DE1B4380B584B084
:102FA00000AF78600023FB600023BB607B681B6878
:102FB0009B6803F00103012B40D07B681B689A6873
:102FC0007B681B6842F001029A601F4B1B681F4A16
:102FD000A2FB03239B0CBB6002E0BB68013BBB6010
:102FE000BB68002BF9D1FFF71BFCF8601FE0FFF76F
:102FF00017FC0246FB68D31A022B18D97B681B68A2
:103000009B6803F00103012B11D07B689B6A43F09E
:1030100010027B689A627B68DB6A43F001027B687E
:10302000DA627B68002283F82420012307E07B68B2
:103030001B689B6803F00103012BD8D100231846BD
:103040001037BD4680BD00BF0000002083DE1B435B
:1030500080B584B000AF78600023FB607B681B689C
:103060009B6803F00103012B2ED17B681B689A68D3
:103070007B681B6822F001029A60FFF7D1FBF860C1
:103080001BE0FFF7CDFB0246FB68D31A022B14D9D5
:103090007B681B689B6803F00103012B0DD17B68E3
:1030A0009B6A43F010027B689A627B68DB6A43F09C
:1030B00001027B68DA62012307E07B681B689B687A
:1030C00003F00103012BDCD0002318461037BD4666
:1030D00080BD000080B485B000AF78607B6803F0ED
:1030E0000703FB600C4BDB68BB60BA684FF6FF035D
:1030F0001340BB60FB681A02BB68134343F0BF6315
:1031000043F40033BB60044ABB68D36000BF14378C
:10311000BD4680BC704700BF00ED00E080B400AF4A
:10312000044BDB681B0A03F007031846BD4680BC4E
:10313000704700BF00ED00E080B483B000AF0346ED
:10314000FB7197F90730002B0BDBFB7903F01F02B3
:10315000064997F907305B09012000FA02F241F8AD
:10316000232000BF0C37BD4680BC704700E100E063
:1031700080B483B000AF03463960FB7197F9073024
:10318000002B0ADB3B68DAB20C4997F907301201D1
:10319000D2B20B4483F800230AE03B68DAB2084954
:1031A000FB7903F00F03043B1201D2B20B441A76F1
:1031B00000BF0C37BD4680BC704700BF00E100E097
:1031C00000ED00E080B489B000AFF860B9607A60CB
:1031D000FB6803F00703FB61FB69C3F10703042BE2
:1031E00028BF0423BB61FB690433062B02D9FB69AA
:1031F000033B00E000237B614FF0FF32BB6902FA22
:1032000003F3DA43BB681A407B699A404FF0FF3101
:103210007B6901FA03F3D9437B680B4013431846DB
:103220002437BD4680BC704780B582B000AF78605F
:103230007B68013BB3F1807F01D301230FE00A4A91
:103240007B68013B53600F214FF0FF30FFF790FF89
:10325000054B00229A60044B07221A60002318468F
:103260000837BD4680BD00BF10E000E080B582B0E9
:1032700000AF78607868FFF72DFF00BF0837BD46C4
:1032800080BD80B586B000AF0346B9607A60FB733D
:1032900000237B61FFF742FF78617A68B96878693B
:1032A000FFF790FF024697F90F3011461846FFF7D7
:1032B0005FFF00BF1837BD4680BD80B582B000AF4C
:1032C0000346FB7197F907301846FFF735FF00BF3B
:1032D0000837BD4680BD80B582B000AF78607868A1
:1032E000FFF7A2FF034618460837BD4680BD80B4ED
:1032F00085B000AF78600023FB737B6893F82130C2
:10330000DBB2022B08D07B6804229A637B68002220
:1033100083F82020012320E07B681B681A687B6803
:103320001B6822F00E021A607B681B681A687B68B3
:103330001B6822F001021A607B681A6C7B68DB6BE9
:10334000012101FA02F25A607B68012283F82120F0
:103350007B68002283F82020FB7B18461437BD468B
:1033600080BC704780B584B000AF78600023FB73E9
:103370007B6893F82130DBB2022B05D07B680422F6
:103380009A630123FB7351E07B681B681A687B68B2
:103390001B6822F00E021A607B681B681A687B6843
:1033A0001B6822F001021A607B681B68224A934264
:1033B00029D07B681B68214A934222D07B681B6816
:1033C0001F4A93421AD07B681B681E4A934212D050
:1033D0007B681B681C4A93420AD07B681B681B4AA7
:1033E000934202D14FF480130EE04FF080730BE054
:1033F0004FF4803308E04FF4805305E04FF48073BE
:1034000002E0102300E00123114A53607B6801228F
:1034100083F821207B68002283F820207B685B6B87
:10342000002B03D07B685B6B78689847FB7B184662
:103430001037BD4680BD00BF080002401C0002409E
:103440003000024044000240580002406C0002403C
:103450000000024080B48BB000AF78603960002378
:103460007B6200233B6269E101227B6A02FA03F37B
:10347000FB613B681B68FA691340BB61BA69FB6971
:103480009A4240F058813B685B689A4A93425ED00A
:10349000984A934275D8984A934258D0964A934294
:1034A0006FD8964A934252D0944A934269D8944A2C
:1034B00093424CD0924A934263D8924A934246D068
:1034C000904A93425DD8122B2AD8122B59D801A2C8
:1034D00052F823F04F350008293500083B35000825
:1034E0007D350008833500088335000883350008E2
:1034F00083350008833500088335000883350008CC
:1035000083350008833500088335000883350008BB
:10351000833500088335000831350008453500083B
:10352000794A934213D02CE03B68DB683B6229E088
:103530003B68DB6804333B6224E03B68DB680833AC
:103540003B621FE03B68DB680C333B621AE03B6880
:103550009B68002B02D104233B6213E03B689B680D
:10356000012B05D108233B627B68FA691A6109E0E7
:1035700008233B627B68FA695A6103E000233B62DF
:1035800000E000BFBB69FF2B01D87B6801E07B68CE
:1035900004337B61BB69FF2B02D87B6A9B0002E08E
:1035A0007B6A083B9B003B617B691A680F213B6982
:1035B00001FA03F3DB431A40396A3B6901FA03F36A
:1035C0001A437B691A603B685B6803F08053002BE9
:1035D00000F0B1804D4B9B694C4A43F0010393616D
:1035E0004A4B9B6903F00103BB60BB68484A7B6A96
:1035F0009B08023352F82330FB607B6A03F003031D
:103600009B000F2202FA03F3DB43FA681340FB60CE
:103610007B68404A934213D07B683F4A93420DD067
:103620007B683E4A934207D07B683D4A934201D172
:10363000032306E0042304E0022302E0012300E068
:1036400000237A6A02F0030292009340FA6813435F
:10365000FB602F497B6A9B080233FA6841F82320FC
:103660003B685B6803F48013002B06D02D4B9A68EF
:103670002C49BB6913438B6006E02A4B9A68BB69EF
:10368000DB43284913408B603B685B6803F40013FD
:10369000002B06D0234BDA682249BB691343CB6069
:1036A00006E0204BDA68BB69DB431E491340CB6060
:1036B0003B685B6803F40033002B06D0194B5A6853
:1036C0001849BB6913434B6006E0164B5A68BB6947
:1036D000DB43144913404B603B685B6803F4803361
:1036E000002B21D00F4B1A680E49BB6913430B60A6
:1036F00021E000BF00003210000031100000221055
:1037000000002110000012100000111000100240F3
:103710000000014000080140000C01400010014081
:1037200000140140000401400B4B1A68BB69DB43E5
:10373000094913400B607B6A01337B623B681A685E
:103740007B6A22FA03F3002B7FF48EAE00BF00BF2A
:103750002C37BD4680BC70470004014080B485B062
:1037600000AF78600B467B807B689A687B8813404B
:10377000002B02D00123FB7301E00023FB73FB7BD2
:1037800018461437BD4680BC704780B483B000AF84
:1037900078600B467B8013467B707B78002B03D0D0
:1037A0007A887B681A6103E07B881A047B681A6157
:1037B00000BF0C37BD4680BC7047000080B584B0A8
:1037C00000AF78607B68002B01D101232BE17B687F
:1037D00093F83D30DBB2002B06D17B68002283F8E2
:1037E0003C207868FEF74EFE7B68242283F83D205B
:1037F0007B681B681A687B681B6822F001021A60EC
:103800007B681B681A687B681B6842F400421A6078
:103810007B681B681A687B681B6822F400421A6088
:1038200001F0FCFBF8607B685B68814A934207D833
:10383000FB68804A934294BF01230023DBB206E079
:10384000FB687D4A934294BF01230023DBB2002B27
:1038500001D00123E7E0FB68784AA2FB03239B0C1D
:10386000BB607B681B685B6823F03F017B681B685B
:10387000BA680A435A607B681B681B6A23F03F01E1
:103880007B685B686A4A934202D8BB68013309E0EF
:10389000BB684FF4967202FB03F3694AA2FB032351
:1038A0009B0901337A6812680B4313627B681B68BB
:1038B000DB6923F44F4222F0FF027B685B685C49BE
:1038C0008B4219D8FB68591E7B685B685B00B1FBB3
:1038D000F3F3591C40F6FC730B40002B0AD0FB6835
:1038E000591E7B685B685B00B1FBF3F30133C3F3E4
:1038F0000B0351E004234FE07B689B68002B11D140
:10390000FB68581E7B6859680B465B000B44B0FB94
:10391000F3F30133C3F30B03002B0CBF012300238C
:10392000DBB212E0FB68581E7B6859680B469B00AF
:103930000B4499000B44B0FBF3F30133C3F30B03C7
:10394000002B0CBF01230023DBB2002B01D001238D
:1039500022E07B689B68002B0ED1FB68581E7B68B9
:1039600059680B465B000B44B0FBF3F30133C3F320
:103970000B0343F400430FE0FB68581E7B68596853
:103980000B469B000B4499000B44B0FBF3F301334F
:10399000C3F30B0343F44043796809681343CB61D5
:1039A0007B681B681B6823F0C0017B68DA697B6851
:1039B0001B6A1A437B681B680A431A607B681B6892
:1039C0009B6823F4034323F0FF037A6811697A6844
:1039D000D26811437A6812680B4393607B681B6856
:1039E000DB6823F0FF017B685A697B689B691A4397
:1039F0007B681B680A43DA607B681B681A687B680F
:103A00001B6842F001021A607B6800221A647B681E
:103A1000202283F83D207B6800221A637B68002205
:103A200083F83E20002318461037BD4680BD00BFF6
:103A3000A08601007F841E00FF083D0083DE1B433B
:103A4000D34D621080B588B002AFF86008461146C9
:103A50001A4603467B810B463B811346FB80FEF7EB
:103A6000DFFE7861FB6893F83D30DBB2202B40F03D
:103A7000D9807B690093192301226D49F86800F011
:103A8000CDFC0346002B01D00223CCE0FB6893F869
:103A90003C30012B01D10223C5E0FB68012283F8F1
:103AA0003C20FB681B681B6803F00103012B07D057
:103AB000FB681B681A68FB681B6842F001021A6009
:103AC000FB681B681A68FB681B6822F400621A60B6
:103AD000FB68212283F83D20FB68402283F83E20CA
:103AE000FB6800221A64FB683A6A5A62FB68BA8C67
:103AF0005A85FB685B8D9AB2FB681A85FB684D4A54
:103B0000DA62F8883A8979897B690193BB6A009304
:103B10000346F86800F004FB0346002B52D0012353
:103B200081E07A69B96AF86800F092FD0346002BDB
:103B30000DD0FB681B6C042B07D1FB681B681A684F
:103B4000FB681B6842F400721A6001236BE0FB689B
:103B50005B6A1A78FB681B681A61FB685B6A5A1C0F
:103B6000FB685A62FB681B8D013B9AB2FB681A85A1
:103B7000FB685B8D9BB2013B9AB2FB685A85FB6880
:103B80001B685B6903F00403042B1BD1FB681B8DCE
:103B9000002B17D0FB685B6A1A78FB681B681A61F8
:103BA000FB685B6A5A1CFB685A62FB681B8D013B11
:103BB0009AB2FB681A85FB685B8D9BB2013B9AB297
:103BC000FB685A85FB681B8D002BAAD17A69B96AFC
:103BD000F86800F085FD0346002B0DD0FB681B6CD8
:103BE000042B07D1FB681B681A68FB681B6842F44A
:103BF00000721A60012316E0FB681B681A68FB68F4
:103C00001B6842F400721A60FB68202283F83D2092
:103C1000FB68002283F83E20FB68002283F83C20EA
:103C2000002300E0022318461837BD4680BD00BFC0
:103C3000020010000000FFFF80B58CB002AFF860FA
:103C4000084611461A4603467B810B463B811346C4
:103C5000FB8000233B62FEF7E3FD7862FB6893F88C
:103C60003D30DBB2202B40F050827B6A0093192359
:103C700001228249F86800F0D1FB0346002B01D0F5
:103C8000022343E2FB6893F83C30012B01D102236D
:103C90003CE2FB68012283F83C20FB681B681B6840
:103CA00003F00103012B07D0FB681B681A68FB684F
:103CB0001B6842F001021A60FB681B681A68FB6807
:103CC0001B6822F400621A60FB68222283F83D2000
:103CD000FB68402283F83E20FB6800221A64FB68E0
:103CE0003A6B5A62FB68BA8E5A85FB685B8D9AB252
:103CF000FB681A85FB68624ADA62F8883A89798932
:103D00007B6A0193BB6B00930346F86800F09EFA50
:103D10000346002B01D00123F8E1FB681B8D002B2B
:103D200013D10023FB61FB681B685B69FB61FB68C7
:103D30001B689B69FB61FB69FB681B681A68FB6871
:103D40001B6842F400721A60CCE1FB681B8D012BEA
:103D50001ED1FB681B681A68FB681B6822F480622E
:103D60001A6072B600BF0023BB61FB681B685B6909
:103D7000BB61FB681B689B69BB61BB69FB681B6817
:103D80001A68FB681B6842F400721A6062B635E07C
:103D9000FB681B8D022B1ED1FB681B681A68FB6831
:103DA0001B6842F400621A6072B600BF00237B6198
:103DB000FB681B685B697B61FB681B689B697B61B7
:103DC0007B69FB681B681A68FB681B6822F48062C9
:103DD0001A6062B612E0FB681B681A68FB681B6811
:103DE00042F480621A6000233B61FB681B685B69D8
:103DF0003B61FB681B689B693B613B6972E1FB6847
:103E00001B8D032B00F21F81FB681B8D012B23D11F
:103E10007A6AB96BF86800F0ABFC0346002B01D05E
:103E2000012373E1FB681B681A69FB685B6AD2B205
:103E30001A70FB685B6A5A1CFB685A62FB681B8D30
:103E4000013B9AB2FB681A85FB685B8D9BB2013B14
:103E50009AB2FB685A8545E1FB681B8D022B52D153
:103E60007B6A0093BB6B00220649F86800F0D6FA23
:103E70000346002B08D0012348E100BF02001000D8
:103E80000000FFFF0400010072B600BFFB681B6862
:103E90001A68FB681B6842F400721A60FB681B68B2
:103EA0001A69FB685B6AD2B21A70FB685B6A5A1CBB
:103EB000FB685A62FB681B8D013B9AB2FB681A854E
:103EC000FB685B8D9BB2013B9AB2FB685A8562B678
:103ED00000BFFB681B681A69FB685B6AD2B21A7084
:103EE000FB685B6A5A1CFB685A62FB681B8D013BCE
:103EF0009AB2FB681A85FB685B8D9BB2013B9AB254
:103F0000FB685A85EEE07B6A0093BB6B0022814917
:103F1000F86800F083FA0346002B01D00123F5E096
:103F2000FB681B681A68FB681B6822F480621A60D1
:103F300072B600BFFB681B681A69FB685B6AD2B285
:103F40001A70FB685B6A5A1CFB685A62FB681B8D1F
:103F5000013B9AB2FB681A85FB685B8D9BB2013B03
:103F60009AB2FB685A856C4B1B68DB086B4AA2FB54
:103F700003231A0A13469B001344DA00D31A3B6248
:103F80003B6A013B3B623B6A002B18D1FB68002275
:103F90001A63FB68202283F83D20FB68002283F827
:103FA0003E20FB681B6C43F02002FB681A6462B67B
:103FB00000BFFB68002283F83C200123A6E0FB68D9
:103FC0001B685B6903F00403042BD9D1FB681B68F1
:103FD0001A68FB681B6842F400721A60FB681B6871
:103FE0001A69FB685B6AD2B21A70FB685B6A5A1C7A
:103FF000FB685A62FB681B8D013B9AB2FB681A850D
:10400000FB685B8D9BB2013B9AB2FB685A8562B636
:1040100000BFFB681B681A69FB685B6AD2B21A7042
:10402000FB685B6A5A1CFB685A62FB681B8D013B8C
:104030009AB2FB681A85FB685B8D9BB2013B9AB212
:10404000FB685A854EE07A6AB96BF86800F090FB1D
:104050000346002B01D0012358E0FB681B681A6956
:10406000FB685B6AD2B21A70FB685B6A5A1CFB6819
:104070005A62FB681B8D013B9AB2FB681A85FB688C
:104080005B8D9BB2013B9AB2FB685A85FB681B684B
:104090005B6903F00403042B24D1FB681B8D032B05
:1040A00007D1FB681B681A68FB681B6822F48062F2
:1040B0001A60FB681B681A69FB685B6AD2B21A70E7
:1040C000FB685B6A5A1CFB685A62FB681B8D013BEC
:1040D0009AB2FB681A85FB685B8D9BB2013B9AB272
:1040E000FB685A85FB681B8D002B7FF488AEFB684C
:1040F000202283F83D20FB68002283F83E20FB68E5
:10410000002283F83C20002300E0022318462837D1
:10411000BD4680BD040001000000002089B5F814F0
:1041200080B588B002AFF860084611461A460346CB
:104130007B810B463B811346FB80FB681B681A683A
:10414000FB681B6842F480721A607B6A00933B6ACA
:1041500000224FF00111F86800F060F90346002BCF
:104160000DD0FB681B681B6803F48073B3F5807F78
:1041700003D1FB684FF400721A6403235FE07B896C
:10418000DBB21A46FB681B6802F0FE021A617B6A0A
:104190003A6A2D49F86800F0BBF90346002B01D0BC
:1041A00001234CE000237B61FB681B685B697B613A
:1041B000FB681B689B697B617B697A6A396AF8686E
:1041C00000F046FA0346002B0DD0FB681B6C042B55
:1041D00007D1FB681B681A68FB681B6842F4007211
:1041E0001A6001232BE0FB88012B05D13B89DAB251
:1041F000FB681B681A6121E03B891B0A9BB2DAB29B
:10420000FB681B681A617A6A396AF86800F020FA5C
:104210000346002B0DD0FB681B6C042B07D1FB68F9
:104220001B681A68FB681B6842F400721A6001235D
:1042300005E03B89DAB2FB681B681A610023184667
:104240001837BD4680BD00BF0200010080B588B0B0
:1042500002AFF860084611461A4603467B810B46BA
:104260003B811346FB80FB681B681A68FB681B6870
:1042700042F480621A60FB681B681A68FB681B685E
:1042800042F480721A607B6A00933B6A00224FF00E
:104290000111F86800F0C2F80346002B0DD0FB684E
:1042A0001B681B6803F48073B3F5807F03D1FB6840
:1042B0004FF400721A640323AAE07B89DBB21A462A
:1042C000FB681B6802F0FE021A617B6A3A6A524977
:1042D000F86800F01DF90346002B01D0012397E098
:1042E00000237B61FB681B685B697B61FB681B6863
:1042F0009B697B617B697A6A396AF86800F0A8F982
:104300000346002B0DD0FB681B6C042B07D1FB6808
:104310001B681A68FB681B6842F400721A6001236C
:1043200076E0FB88012B05D13B89DAB2FB681B687C
:104330001A6121E03B891B0A9BB2DAB2FB681B6859
:104340001A617A6A396AF86800F082F90346002B2C
:104350000DD0FB681B6C042B07D1FB681B681A6827
:10436000FB681B6842F400721A60012350E03B892D
:10437000DAB2FB681B681A617A6A396AF86800F079
:1043800067F90346002B0DD0FB681B6C042B07D18B
:10439000FB681B681A68FB681B6842F400721A60AD
:1043A000012335E0FB681B681A68FB681B6842F450
:1043B00080721A607B6A00933B6A00224FF0011101
:1043C000F86800F02BF80346002B0DD0FB681B6843
:1043D0001B6803F48073B3F5807F03D1FB684FF44F
:1043E00000721A64032313E07B89DBB243F00103FC
:1043F000DAB2FB681B681A617B6A3A6A0649F86898
:1044000000F086F80346002B01D0012300E00023D2
:1044100018461837BD4680BD0200010080B584B043
:1044200000AFF860B9603B601346FB7148E03B6841
:10443000B3F1FF3F44D0FEF7F3F90246BB69D31A4C
:104440003A689A4202D33B68002B39D1BB681B0CF7
:10445000DBB2012B0DD1FB681B685B69DA43BB68DB
:1044600013409BB2002B0CBF01230023DBB21A4682
:104470000CE0FB681B689B69DA43BB6813409BB286
:10448000002B0CBF01230023DBB21A46FB799A42B2
:1044900016D1FB6800221A63FB68202283F83D20B6
:1044A000FB68002283F83E20FB681B6C43F020026F
:1044B000FB681A64FB68002283F83C20012323E098
:1044C000BB681B0CDBB2012B0DD1FB681B685B6961
:1044D000DA43BB6813409BB2002B0CBF01230023BF
:1044E000DBB21A460CE0FB681B689B69DA43BB68C9
:1044F00013409BB2002B0CBF01230023DBB21A46F2
:10450000FB799A4293D0002318461037BD4680BDF0
:1045100080B584B000AFF860B9607A603B6071E04C
:10452000FB681B685B6903F48063B3F5806F23D17C
:10453000FB681B681A68FB681B6842F400721A600B
:10454000FB681B686FF480625A61FB6800221A6383
:10455000FB68202283F83D20FB68002283F83E2080
:10456000FB681B6C43F00402FB681A64FB680022C2
:1045700083F83C20012367E07B68B3F1FF3F41D023
:10458000FEF74EF902463B68D31A7A689A4202D384
:104590007B68002B36D1BB681B0CDBB2012B0CD126
:1045A000FB681B685B69DA43BB6813409BB2002B56
:1045B00014BF01230023DBB20BE0FB681B689B697F
:1045C000DA43BB6813409BB2002B14BF01230023C6
:1045D000DBB2002B16D0FB6800221A63FB68202296
:1045E00083F83D20FB68002283F83E20FB681B6CAB
:1045F00043F02002FB681A64FB68002283F83C2029
:10460000012321E0BB681B0CDBB2012B0CD1FB6842
:104610001B685B69DA43BB6813409BB2002B14BF75
:1046200001230023DBB20BE0FB681B689B69DA43C4
:10463000BB6813409BB2002B14BF01230023DBB2E5
:10464000002B7FF46DAF002318461037BD4680BDA8
:1046500080B584B000AFF860B9607A6034E0F86883
:1046600000F0E3F80346002B01D0012334E0BB68DF
:10467000B3F1FF3F28D0FEF7D3F802467B68D31A88
:10468000BA689A4202D3BB68002B1DD1FB681B6835
:104690005B6903F08003802B16D0FB6800221A634D
:1046A000FB68202283F83D20FB68002283F83E202F
:1046B000FB681B6C43F02002FB681A64FB68002255
:1046C00083F83C20012307E0FB681B685B6903F06B
:1046D0008003802BC3D1002318461037BD4680BD10
:1046E00080B584B000AFF860B9607A6034E0F868F3
:1046F00000F09BF80346002B01D0012334E0BB6897
:10470000B3F1FF3F28D0FEF78BF802467B68D31A3F
:10471000BA689A4202D3BB68002B1DD1FB681B68A4
:104720005B6903F00403042B16D0FB6800221A63B4
:10473000FB68202283F83D20FB68002283F83E209E
:10474000FB681B6C43F02002FB681A64FB680022C4
:1047500083F83C20012307E0FB681B685B6903F0DA
:104760000403042BC3D1002318461037BD4680BD77
:1047700080B584B000AFF860B9607A6049E0FB684A
:104780001B685B6903F01003102B19D1FB681B68D1
:104790006FF010025A61FB6800221A63FB68202246
:1047A00083F83D20FB68002283F83E20FB681A6CEA
:1047B000FB681A64FB68002283F83C20012330E088
:1047C000FEF72EF802467B68D31ABA689A4202D3E3
:1047D000BB68002B1DD1FB681B685B6903F04003BD
:1047E000402B16D0FB6800221A63FB68202283F856
:1047F0003D20FB68002283F83E20FB681B6C43F0E1
:104800002002FB681A64FB68002283F83C20012325
:1048100007E0FB681B685B6903F04003402BAED1E7
:10482000002318461037BD4680BD80B483B000AF6A
:1048300078607B681B685B6903F48063B3F5806F05
:104840001BD17B681B686FF480625A617B68002211
:104850001A637B68202283F83D207B68002283F85E
:104860003E207B681B6C43F004027B681A647B6803
:10487000002283F83C20012300E0002318460C3777
:10488000BD4680BC7047000080B586B000AF786040
:104890007B68002B01D1012372E27B681B6803F067
:1048A0000103002B00F08780924B5B6803F00C0340
:1048B000042B0CD08F4B5B6803F00C03082B12D138
:1048C0008C4B5B6803F48033B3F5803F0BD1894B8D
:1048D0001B6803F40033002B6CD07B685B68002BF3
:1048E00068D101234CE27B685B68B3F5803F06D159
:1048F000804B1B687F4A43F4803313602EE07B6853
:104900005B68002B0CD17B4B1B687A4A23F4803305
:104910001360784B1B68774A23F4802313601DE0F3
:104920007B685B68B3F5A02F0CD1724B1B68714A92
:1049300043F4802313606F4B1B686E4A43F480334B
:1049400013600BE06B4B1B686A4A23F480331360DF
:10495000684B1B68674A23F4802313607B685B689D
:10496000002B13D0FDF75CFF386108E0FDF758FF1E
:1049700002463B69D31A642B01D9032300E25D4B45
:104980001B6803F40033002BF0D014E0FDF748FF60
:10499000386108E0FDF744FF02463B69D31A642BF7
:1049A00001D90323ECE1534B1B6803F40033002BC4
:1049B000F0D100E000BF7B681B6803F00203002B0E
:1049C00063D04C4B5B6803F00C03002B0BD0494BBE
:1049D0005B6803F00C03082B1CD1464B5B6803F4A7
:1049E0008033002B16D1434B1B6803F00203002BCE
:1049F00005D07B681B69012B01D00123C0E13D4B31
:104A00001B6823F0F8027B685B69DB0039491343BC
:104A10000B603AE07B681B69002B20D0364B0122EB
:104A20001A60FDF7FDFE386108E0FDF7F9FE024669
:104A30003B69D31A022B01D90323A1E12D4B1B683B
:104A400003F00203002BF0D02A4B1B6823F0F8027E
:104A50007B685B69DB00274913430B6015E0264B3D
:104A600000221A60FDF7DCFE386108E0FDF7D8FE91
:104A700002463B69D31A022B01D9032380E11D4B67
:104A80001B6803F00203002BF0D17B681B6803F066
:104A90000803002B3AD07B689B69002B19D0174B79
:104AA00001221A60FDF7BCFE386108E0FDF7B8FE90
:104AB00002463B69D31A022B01D9032360E10D4B57
:104AC0005B6A03F00203002BF0D0012000F0CEFA65
:104AD0001CE00A4B00221A60FDF7A2FE38610FE0CD
:104AE000FDF79EFE02463B69D31A022B08D9032329
:104AF00046E100BF001002400000424280044242F2
:104B0000924B5B6A03F00203002BE9D17B681B68C0
:104B100003F00403002B00F0A6800023FB758B4BF1
:104B2000DB6903F08053002B0DD1884BDB69874A8A
:104B300043F08053D361854BDB6903F08053BB6046
:104B4000BB680123FB75824B1B6803F48073002B49
:104B500018D17F4B1B687E4A43F480731360FDF7C6
:104B60005FFE386108E0FDF75BFE02463B69D31A41
:104B7000642B01D9032303E1754B1B6803F4807395
:104B8000002BF0D07B68DB68012B06D16F4B1B6AD2
:104B90006E4A43F0010313622DE07B68DB68002B53
:104BA0000CD16A4B1B6A694A23F001031362674BFD
:104BB0001B6A664A23F0040313621CE07B68DB680F
:104BC000052B0CD1614B1B6A604A43F0040313624E
:104BD0005E4B1B6A5D4A43F0010313620BE05B4BC3
:104BE0001B6A5A4A23F001031362584B1B6A574A47
:104BF00023F0040313627B68DB68002B15D0FDF7FC
:104C00000FFE38610AE0FDF70BFE02463B69D31A3E
:104C100041F28832934201D90323B1E04B4B1B6A26
:104C200003F00203002BEED014E0FDF7F9FD38612C
:104C30000AE0FDF7F5FD02463B69D31A41F28832DE
:104C4000934201D903239BE0404B1B6A03F002030C
:104C5000002BEED1FB7D012B05D13C4BDB693B4AA0
:104C600023F08053D3617B68DB69002B00F08780E1
:104C7000364B5B6803F00C03082B61D07B68DB6963
:104C8000022B46D1334B00221A60FDF7C9FD386173
:104C900008E0FDF7C5FD02463B69D31A022B01D996
:104CA00003236DE0294B1B6803F00073002BF0D148
:104CB0007B681B6AB3F5803F08D1244B5B6823F403
:104CC00000327B689B68214913434B601F4B5B6834
:104CD00023F474127B68196A7B685B6A0B431B4977
:104CE00013434B601B4B01221A60FDF799FD38619D
:104CF00008E0FDF795FD02463B69D31A022B01D966
:104D000003233DE0114B1B6803F00073002BF0D030
:104D100035E0104B00221A60FDF782FD386108E093
:104D2000FDF77EFD02463B69D31A022B01D903230E
:104D300026E0064B1B6803F00073002BF0D11EE049
:104D40007B68DB69012B07D1012319E000100240C9
:104D500000700040600042420B4B5B68FB60FB68E8
:104D600003F480327B681B6A9A4206D1FB6803F425
:104D700070127B685B6A9A4201D0012300E0002335
:104D800018461837BD4680BD0010024080B584B07B
:104D900000AF786039607B68002B01D10123D0E03F
:104DA0006A4B1B6803F007033A689A4210D9674BB5
:104DB0001B6823F0070265493B6813430B60634B94
:104DC0001B6803F007033A689A4201D00123B8E058
:104DD0007B681B6803F00203002B20D07B681B68F4
:104DE00003F00403002B05D0594B5B68584A43F489
:104DF000E06353607B681B6803F00803002B05D059
:104E0000534B5B68524A43F460535360504B5B68AA
:104E100023F0F0027B689B684D4913434B607B682D
:104E20001B6803F00103002B40D07B685B68012BFB
:104E300007D1474B1B6803F40033002B15D1012326
:104E40007FE07B685B68022B07D1414B1B6803F056
:104E50000073002B09D1012373E03D4B1B6803F065
:104E60000203002B01D101236BE0394B5B6823F077
:104E700003027B685B68364913434B60FDF7D0FC47
:104E8000F8600AE0FDF7CCFC0246FB68D31A41F259
:104E90008832934201D9032353E02D4B5B6803F022
:104EA0000C027B685B689B009A42EBD1274B1B6826
:104EB00003F007033A689A4210D2244B1B6823F090
:104EC000070222493B6813430B60204B1B6803F029
:104ED00007033A689A4201D0012332E07B681B68DD
:104EE00003F00403002B08D0194B5B6823F4E06245
:104EF0007B68DB68164913434B607B681B6803F0D3
:104F00000803002B09D0124B5B6823F460527B68C6
:104F10001B69DB000E4913434B6000F021F8024689
:104F20000B4B5B681B0903F00F030A49CB5C22FAA9
:104F300003F3094A1360094B1B681846FDF72EFC62
:104F4000002318461037BD4680BD00BF0020024038
:104F5000001002406C8100080000002004000020C6
:104F600080B487B000AF0023FB600023BB60002348
:104F70007B6100237B6000233B611E4B5B68FB6011
:104F8000FB6803F00C03042B02D0082B03D027E0AE
:104F9000194B3B6127E0FB689B0C03F00F03174A9A
:104FA000D35C7B60FB6803F48033002B10D0114B83
:104FB0005B685B0C03F00103114AD35CBB607B6848
:104FC0000D4A03FB02F2BB68B2FBF3F37B6104E022
:104FD0007B680C4A02FB03F37B617B693B6102E067
:104FE000054B3B6100BF3B6918461C37BD4680BC82
:104FF000704700BF0010024000127A008481000850
:105000009481000800093D0080B400AF024B1B688A
:105010001846BD4680BC70470000002080B500AF38
:10502000FFF7F2FF0246054B5B681B0A03F007031C
:105030000349CB5C22FA03F3184680BD00100240FE
:105040007C81000880B500AFFFF7DEFF0246054B0C
:105050005B68DB0A03F007030349CB5C22FA03F326
:10506000184680BD001002407C81000880B485B0E5
:1050700000AF78600A4B1B680A4AA2FB03235B0A55
:105080007A6802FB03F3FB6000BFFB685A1EFA60FC
:10509000002BF9D100BF00BF1437BD4680BC70475C
:1050A00000000020D34D621080B586B000AF78605C
:1050B00000233B610023FB607B681B6803F0010356
:1050C000002B7DD00023FB754F4BDB6903F0805331
:1050D000002B0DD14C4BDB694B4A43F08053D3611D
:1050E000494BDB6903F08053BB60BB680123FB7550
:1050F000464B1B6803F48073002B18D1434B1B688D
:10510000424A43F480731360FDF78AFB386108E07C
:10511000FDF786FB02463B69D31A642B01D90323B2
:105120006DE03A4B1B6803F48073002BF0D0364BD4
:105130001B6A03F44073FB60FB68002B2ED07B6876
:105140005B6803F44073FA689A4227D02E4B1B6ABF
:1051500023F44073FB602E4B01221A602C4B00227B
:105160001A60294AFB681362FB6803F00103002BF5
:1051700014D0FDF755FB38610AE0FDF751FB0246FC
:105180003B69D31A41F28832934201D9032336E0B6
:105190001D4B1B6A03F00203002BEED01A4B1B6A57
:1051A00023F440727B685B68174913430B62FB7DF5
:1051B000012B05D1144BDB69134A23F08053D361D3
:1051C0007B681B6803F00203002B08D00E4B5B6862
:1051D00023F440427B689B680B4913434B607B6818
:1051E0001B6803F01003002B08D0074B5B6823F407
:1051F00080027B68DB68044913434B600023184638
:105200001837BD4680BD00BF00100240007000404E
:105210004004424280B588B000AF786000237B61D3
:105220000023FB6100233B610023FB600023BB6183
:105230007B68102B0AD07B68102B00F28A807B6879
:10524000012B45D07B68022B75D082E0464B5B6812
:10525000FB60454B1B6803F08073002B7BD0FB6821
:105260009B0C03F00F03414AD35C3B61FB6803F4E2
:105270008033002B15D03C4B5B685B0C03F00103C3
:105280003B4AD35C7B61FB6803F48033002B0DD079
:10529000384A7B69B2FBF3F23B6902FB03F3FB6123
:1052A00004E03B69344A02FB03F3FB612E4B5B686D
:1052B00003F48003B3F5800F02D1FB69BB614AE0C0
:1052C000FB695B002D4AA2FB03235B08BB6142E044
:1052D000254B1B6AFB60FB6803F44073B3F5807FCA
:1052E00008D1FB6803F00203002B03D04FF4004306
:1052F000BB611FE0FB6803F44073B3F5007F09D185
:10530000194B5B6A03F00203002B03D049F64043BC
:10531000BB610FE0FB6803F44073B3F5407F1CD121
:10532000114B1B6803F40033002B16D04FF22443BB
:10533000BB6112E011E0FFF785FE02460A4B5B6895
:105340009B0B03F0030301335B00B2FBF3F3BB6180
:1053500004E000BF02E000BF00E000BFBB691846E8
:105360002037BD4680BD00BF001002409881000874
:10537000A881000800127A0000093D00ABAAAAAA81
:1053800080B582B000AF78607B68002B01D101232B
:1053900041E07B6893F83D30DBB2002B06D17B689F
:1053A000002283F83C207868FDF7D8F87B68022259
:1053B00083F83D207B681A687B68043319461046E1
:1053C00000F040F97B68012283F846207B680122C7
:1053D00083F83E207B68012283F83F207B6801220E
:1053E00083F840207B68012283F841207B680122FA
:1053F00083F842207B68012283F843207B680122E6
:1054000083F844207B68012283F845207B680122D1
:1054100083F83D20002318460837BD4680BD0000B4
:1054200080B485B000AF78607B6893F83D30DBB224
:10543000012B01D0012332E07B68022283F83D205A
:105440007B681B68184A93420ED07B681B68B3F1D7
:10545000804F09D07B681B68144A934204D07B6854
:105460001B68134A934211D17B681B689B6803F049
:105470000703FB60FB68062B10D07B681B681A686B
:105480007B681B6842F001021A6007E07B681B68BA
:105490001A687B681B6842F001021A6000231846F4
:1054A0001437BD4680BC7047002C0140000400400A
:1054B0000008004080B584B000AF786039600023F8
:1054C000FB737B6893F83C30012B01D10223B4E0DD
:1054D0007B68012283F83C207B68022283F83D2010
:1054E0007B681B689B68BB60BB6823F07703BB606D
:1054F000BB6823F47F43BB607B681B68BA689A6013
:105500003B681B68B3F5005F3ED0B3F5005F00F267
:105510008780B3F5805F00F08680B3F5805F7FD829
:10552000702B1AD0702B7BD8602B50D0602B77D883
:10553000502B3CD0502B73D8402B58D0402B6FD8D9
:10554000302B64D0302B6BD8202B60D0202B67D829
:10555000002B5CD0102B5AD062E07B6818683B6847
:1055600099683B685A683B68DB6800F050F97B68D3
:105570001B689B68BB60BB6843F07703BB607B68BC
:105580001B68BA689A604FE07B6818683B68996846
:105590003B685A683B68DB6800F039F97B681B6838
:1055A0009A687B681B6842F480429A603CE07B68A2
:1055B00018683B6859683B68DB681A4600F0B0F829
:1055C0007B681B685021184600F007F92CE07B68C7
:1055D00018683B6859683B68DB681A4600F0CEF8EB
:1055E0007B681B686021184600F0F7F81CE07B68B8
:1055F00018683B6859683B68DB681A4600F090F809
:105600007B681B684021184600F0E7F80CE07B68D7
:105610001A683B681B681946104600F0DEF803E084
:105620000123FB7300E000BF7B68012283F83D206B
:105630007B68002283F83C20FB7B18461037BD4670
:1056400080BD000080B485B000AF786039607B68B1
:105650001B68FB607B682F4A93420BD07B68B3F1D9
:10566000804F07D07B682C4A934203D07B682B4A3B
:10567000934208D1FB6823F07003FB603B685B68D2
:10568000FA681343FB607B68224A93420BD07B6825
:10569000B3F1804F07D07B681F4A934203D07B68E9
:1056A0001E4A934208D1FB6823F44073FB603B68B9
:1056B000DB68FA681343FB60FB6823F080023B68F9
:1056C0005B691343FB607B68FA681A603B689A6801
:1056D0007B68DA623B681A687B689A627B680D4A6D
:1056E000934203D13B681A697B681A637B68012285
:1056F0005A617B681B6903F00103002B05D07B68AE
:105700001B6923F001027B681A6100BF1437BD4694
:1057100080BC7047002C014000040040000800409D
:1057200080B487B000AFF860B9607A60FB681B6A2C
:105730007B61FB681B6A23F00102FB681A62FB684D
:105740009B693B613B6923F0F0033B617B681B0174
:105750003A6913433B617B6923F00A037B617A69F1
:10576000BB6813437B61FB683A699A61FB687A699D
:105770001A6200BF1C37BD4680BC704780B487B03A
:1057800000AFF860B9607A60FB681B6A7B61FB68F8
:105790001B6A23F01002FB681A62FB689B693B617D
:1057A0003B6923F470433B617B681B033A691343F5
:1057B0003B617B6923F0A0037B61BB681B017A69B5
:1057C00013437B61FB683A699A61FB687A691A62E4
:1057D00000BF1C37BD4680BC704780B485B000AFA9
:1057E000786039607B689B68FB60FB6823F070031E
:1057F000FB603A68FB68134343F00703FB607B6878
:10580000FA689A6000BF1437BD4680BC704780B408
:1058100087B000AFF860B9607A603B60FB689B6856
:105820007B617B6923F47F437B613B681A027B6861
:105830001A43BB6813437A6913437B61FB687A6937
:105840009A6000BF1C37BD4680BC704780B485B0ED
:1058500000AF786039607B6893F83C30012B01D150
:10586000022346E07B68012283F83C207B68022209
:1058700083F83D207B681B685B68FB607B681B6866
:105880009B68BB60FB6823F07003FB603B681B6890
:10589000FA681343FB607B681B68FA685A607B6890
:1058A0001B68164A93420ED07B681B68B3F1804F89
:1058B00009D07B681B68124A934204D07B681B683E
:1058C000104A93420CD1BB6823F08003BB603B6855
:1058D0005B68BA681343BB607B681B68BA689A60F0
:1058E0007B68012283F83D207B68002283F83C20FE
:1058F000002318461437BD4680BC7047002C014079
:10590000000400400008004080B582B000AF78601D
:105910007B68002B01D1012342E07B6893F8413082
:10592000DBB2002B06D17B68002283F84020786828
:10593000FCF732FE7B68242283F841207B681B68D9
:10594000DA687B681B6822F40052DA60786800F03D
:1059500063FD7B681B681A697B681B6822F49042B0
:105960001A617B681B685A697B681B6822F02A02EF
:105970005A617B681B68DA687B681B6842F40052D6
:10598000DA607B6800225A647B68202283F8412019
:105990007B68202283F842207B6800225A63002320
:1059A00018460837BD4680BD80B58AB002AFF860A2
:1059B000B9603B601346FB8000237B61FB6893F872
:1059C0004130DBB2202B75D1BB68002B02D0FB88A5
:1059D000002B01D101236EE0FB6800225A64FB68B2
:1059E000212283F84120FCF71BFF7861FB68FA88CD
:1059F0009A84FB68FA88DA84FB689B68B3F5805F59
:105A000008D1FB681B69002B04D10023FB61BB6834
:105A1000BB6103E0BB68FB610023BB612EE03B6818
:105A200000937B6900228021F86800F001FB0346A7
:105A3000002B05D0FB68202283F8412003233AE0A5
:105A4000FB69002B0BD1BB691B881A46FB681B68DE
:105A5000C2F308025A60BB690233BB6107E0FB690D
:105A60001A78FB681B685A60FB690133FB61FB68AD
:105A7000DB8C9BB2013B9AB2FB68DA84FB68DB8C5F
:105A80009BB2002BCBD13B6800937B690022402165
:105A9000F86800F0CDFA0346002B05D0FB68202201
:105AA00083F84120032306E0FB68202283F841208D
:105AB000002300E0022318462037BD4680BD0000C9
:105AC00080B5BAB000AF78607B681B681B68C7F808
:105AD000E4307B681B68DB68C7F8E0307B681B68D4
